S0190000426174746C657368697050726F6A6563742E7372656324
S11300000C946B000C9488000C9488000C94880069
S11300100C9488000C9488000C9488000C9488003C
S11300200C9488000C9488000C9488000C9488002C
S11300300C9488000C9488000C9488000C9488001C
S11300400C9488000C9488000C9488000C9488000C
S11300500C94880007634236B79BD8A71A396856B0
S113006018AEBAAB558C1D3CB7CC5763BD6DEDFDD6
S1130070753EF6177231BF000000803F0800000093
S1130080BE922449123EABAAAA2ABECDCCCC4C3E89
S113009000000080BEABAAAAAA3E00000000BF0078
S11300A00000803F0000000000084178D3BB438774
S11300B0D1133D190E3CC3BD4282AD2B3E68EC8288
S11300C076BED98FE1A93E4C80EFFFBE01C4FF7F0D
S11300D03F000000000011241FBECFE5D8E0DEBFC2
S11300E0CDBF11E0A0E6B0E0E4EDFDE102C0059073
S11300F00D92A430B107D9F721E0A4E0B1E001C02A
S11301001D92AC32B207E1F70E94D9060C94E80EB6
S11301100C940000FC010FB6F894609128017091D2
S1130120290180912A0190912B010FBE309721F073
S113013060837183828393830895672B09F09FC042
S1130140009711F4D89808958130910511F4D99845
S113015008958230910511F4DA9808958330910559
S113016011F4DB9808958430910511F4DC98089516
S11301708530910511F4DD9808958630910511F4C8
S1130180DE9808958730910511F4DF9808958A3038
S1130190910511F4C09808958B30910511F4C1981C
S11301A008958C30910511F4C29808958D3091050D
S11301B011F4C39808958E30910511F4C4980895EC
S11301C08F30910511F4C59808958031910511F48B
S11301D0C69808958131910511F4C7980895843122
S11301E0910511F4A89808958531910511F4A99801
S11301F008958631910511F4AA98089587319105DF
S113020011F4AB9808958831910511F4AC980895D0
S11302108931910511F4AD9808958A31910511F44D
S1130220AE9808958B31910511F4AF9808958E31ED
S1130230910511F4909808958F31910511F49198D6
S113024008958032910511F49298089581329105B0
S113025011F4939808958232910511F494980895B5
S11302608332910511F4959808958432910511F41F
S113027096980895859709F09FC0979808950097D8
S113028011F4D89A08958130910511F4D99A0895FA
S11302908230910511F4DA9A08958330910511F4AE
S11302A0DB9A08958430910511F4DC9A0895853021
S11302B0910511F4DD9A08958630910511F4DE9AC2
S11302C008958730910511F4DF9A08958A309105D5
S11302D011F4C09A08958B30910511F4C19A0895D0
S11302E08C30910511F4C29A08958D30910511F462
S11302F0C39A08958E30910511F4C49A08958F30ED
S1130300910511F4C59A08958031910511F4C69AA6
S113031008958131910511F4C79A089584319105A6
S113032011F4A89A08958531910511F4A99A0895B4
S11303308631910511F4AA9A08958731910511F433
S1130340AB9A08958831910511F4AC9A08958931D6
S1130350910511F4AD9A08958A31910511F4AE9A7C
S113036008958B31910511F4AF9A08958E3191055A
S113037011F4909A08958F31910511F4919A08958A
S11303808032910511F4929A08958132910511F405
S1130390939A08958232910511F4949A08958332C0
S11303A0910511F4959A08958432910511F4969A61
S11303B00895859709F4979A0895CF93C82F80FFDD
S11303C007C061E070E082E290E00E949D0006C0F8
S11303D060E070E082E290E00E949D00C1FF07C0EF
S11303E061E070E083E290E00E949D0006C060E05E
S11303F070E083E290E00E949D00C2FF07C061E0CC
S113040070E084E290E00E949D0006C060E070E02D
S113041084E290E00E949D00C3FF07C061E070E0A9
S113042085E290E00E949D0006C060E070E085E2F5
S113043090E00E949D00CF910895CF93C82F60E073
S113044070E08AE190E00E949D008C2F0E94DD0103
S113045061E070E08BE190E00E949D008FEC97E0FA
S11304600197F1F700C0000060E070E08BE190E0DC
S11304700E949D008FEC97E00197F1F700C0000007
S1130480CF91089580E00E941D0281E00E941D0228
S11304900895CF93C62F813059F480E8860F829552
S11304A08F700E941D028C2F8F700E941D020CC041
S11304B0823051F480EC860F82958F700E941D0269
S11304C08C2F8F700E941D02CF91089580E00E94AE
S11304D0DD018FE39CE90197F1F700C0000083E0A0
S11304E00E941D028FE097E20197F1F700C000001F
S11304F083E00E941D028FEE95E50197F1F700C09D
S1130500000083E00E941D0282E00E941D0282E03E
S11305100E941D0288E00E941D0280E00E941D02CC
S11305208CE00E941D0280E00E941D0286E00E9471
S11305301D020895CF93C82F61E070E08AE190E036
S11305400E949D008C2F82958F700E94DD0161E0D6
S113055070E08BE190E00E949D008FEC97E00197A2
S1130560F1F700C0000060E070E08BE190E00E94D1
S11305709D008FEC97E00197F1F700C000008C2FED
S11305808F700E94DD0161E070E08BE190E00E94D9
S11305909D008FEC97E00197F1F700C0000060E048
S11305A070E08BE190E00E949D008FEC97E0019752
S11305B0F1F700C00000CF910895CF93DF93EC01D1
S11305C08881882331F021960E949A0289918111B1
S11305D0FBCFDF91CF9108951ABA17BA8FEF81BB81
S11305E084BB0E94660280E090E0089586B390E0A8
S11305F0909319018093180189B390E090931D01A1
S113060080931C0180E090E00895EF92FF920F9395
S11306101F93CF93DF9388E091E00E948A00CB017F
S11306200E94850B0E94800BC6E0D0E0BE010E94B0
S11306300C0BFC01EE0FFF1FEC59FF4F80819181E1
S113064090932701809326010E94800BBE010E9493
S11306500C0BFC01EE0FFF1FEC59FF4F80819181C1
S113066090932501809324010AE010E04CC00E947D
S1130670800BBE010E940C0BFC01EE0FFF1FEC5916
S1130680FF4FE080F1800E94800BBE010E940C0BA2
S1130690FC01EE0FFF1FEC59FF4F20813181E29ED8
S11306A0C001E39E900DF29E900D1124B8010E94AA
S11306B00C0B90932701809326010E94800BBE01AE
S11306C00E940C0BFC01EE0FFF1FEC59FF4FE08062
S11306D0F1800E94800BBE010E940C0BFC01EE0F06
S11306E0FF1FEC59FF4F20813181E29EC001E39E40
S11306F0900DF29E900D1124B8010E940C0B909362
S11307002501809324018091260190912701209155
S11307100C0130910D018217930709F4A8CF2091A1
S113072024013091250140911A0150911B01241795
S1130730350709F49CCF8217930709F498CF80E01A
S113074090E0DF91CF911F910F91FF90EF9008956A
S1130750CF93DF93EA010E944902CE010E94DD0299
S113076080E090E0DF91CF910895CF93DF93FC0177
S113077020813181232B09F448C0EC0160912601CA
S11307807091270170930D0160930C014AE750E0CA
S113079081E090E00E94A8036091240170912501FA
S11307A070931B0160931A0143E750E082E090E0EC
S11307B00E94A80360912601709127016A5F7F4F10
S11307C06F707078772334F461507109606F7F6FB4
S11307D06F5F7F4F709311016093100170930F014D
S11307E060930E0140E750E081E090E00E94A8038E
S11307F0FFEF2DE389E4F15020408040E1F700C091
S113080000000E9442021982188280E090E0DF9189
S1130810CF9108954F925F926F927F92AF92BF9261
S1130820CF92DF92EF92FF920F931F93CF93DF93B8
S113083000D000D000D0CDB7DEB784309105C9F028
S11308402CF4009761F0029779F027C08830910565
S1130850D1F08A309105E1F00697F9F40FC068945D
S1130860AA24A7F8B12C1BC06894AA24A6F8B12C1A
S113087016C06894AA24A5F8B12C11C06894AA24BF
S1130880A4F8B12C0CC06894AA24A3F8B12C07C016
S11308906894AA24A2F8B12C02C0A12CB12C643013
S11308A07105E1F03CF46115710571F06230710578
S11308B081F028C068307105D9F06A307105E9F01B
S11308C066307105F9F40FC06894EE24E7F8F12C52
S11308D01BC06894EE24E6F8F12C16C06894EE244C
S11308E0E5F8F12C11C06894EE24E4F8F12C0CC066
S11308F06894EE24E3F8F12C07C06894EE24E2F83F
S1130900F12C02C0E12CF12CB5010B2C000C880B4E
S1130910990B0E94210869837A838B839C83E4E189
S1130920F1E0B182A08220E030E040E05FE30E9489
S1130930AD080E94E90770931701609316010EE158
S113094011E01E821D822701FF0C660877082D81A5
S11309503E81B901330F880B990B0E9421089B013A
S1130960AC0160E070E080E090E40E941A096B0141
S11309707C01C301B2010E942108A70196010E94D3
S113098077070E94E907F801619371938F012D8124
S11309903E812F5F3F4F3E832D8323303105B9F6CF
S11309A034E0A316B10481F020E030E040E05EE3DF
S11309B069817A818B819C810E94AD080E94E9073C
S11309C0709313016093120180E090E026960FB6B5
S11309D0F894DEBF0FBECDBFDF91CF911F910F9171
S11309E0FF90EF90DF90CF90BF90AF907F906F908B
S11309F05F904F900895CF93DF93D42FC22F0E941E
S1130A0049028D2F0E949A028C2F0E949A0280E044
S1130A1090E0DF91CF9108956115710509F081C0CF
S1130A2020911401309115012817390719F5809187
S1130A307A00833209F4F4C080917B00833209F494
S1130A40EFC08091060190910701019690930701F0
S1130A5080930601EAE7F0E083E28083818360917A
S1130A600C0170910D0123E243E281E090E00E94C9
S1130A70FB04D6C020911601309117018217930709
S1130A8029F580917C00833209F4CAC080917D00ED
S1130A90833209F4C5C08091060190910701019643
S1130AA09093070180930601EAE7F0E083E28283F2
S1130AB0838360910C0170910D016E5F7F4F23E27F
S1130AC043E281E090E00E94FB04AAC0209112015D
S1130AD0309113018217930709F0A2C0809170002E
S1130AE0833209F49DC080917100833209F498C067
S1130AF080910601909107010196909307018093DC
S1130B000601E0E7F0E083E28083818360910E01D7
S1130B1070910F0123E243E281E090E00E94FB0424
S1130B207FC080911E0190911F016817790719F504
S1130B3080917300833209F473C08091740083320E
S1130B4009F46EC08091060190910701019690937B
S1130B50070180930601E3E7F0E083E28083818369
S1130B6060911A0170911B0123E243E282E090E05C
S1130B700E94FB0455C080912001909121016817C7
S1130B80790729F580917500833209F449C0809171
S1130B907600833209F444C08091060190910701E4
S1130BA001969093070180930601E3E7F0E083E266
S1130BB08283838360911A0170911B016E5F7F4F62
S1130BC023E243E282E090E00E94FB0429C080918A
S1130BD02201909123016817790711F5809177001C
S1130BE08332F1F0809178008332D1F08091060154
S1130BF09091070101969093070180930601E3E722
S1130C00F0E083E28483858360911A0170911B0173
S1130C106C5F7F4F23E243E282E090E00E94FB049A
S1130C2080E090E0089585E0E5EBF0E0AAE7B0E02D
S1130C3001900D928A95E1F787E0EAEBF0E0A3E7F3
S1130C40B0E001900D928A95E1F789E49EE39093D8
S1130C507100809370001092720080E090E008951B
S1130C6010920701109206011092050110920401DE
S1130C7081E090E0909382008093810090938000C3
S1130C8080937F0080E090E00895EF92FF920F93AD
S1130C901F93CF93DF93CDB7DEB7C456D1090FB6F8
S1130CA0F894DEBF0FBECDBF8C010E9442021F9399
S1130CB00F9381EC90E09F938F93CE0101967C017A
S1130CC09F938F930E949B0B88E0E3E8F0E0DE01A2
S1130CD0D39601900D928A95E1F7FE01FB968AE284
S1130CE0DF011D928A95E9F7B701CE01C3960E94F0
S1130CF0900B63E081E00E944902CE01C3960E94FA
S1130D00DD020F900F900F900F900F900F9007300F
S1130D1011054CF063E082E00E94490284EC90E00B
S1130D200E94DD0208C063E082E00E9449028FEC69
S1130D3090E00E94DD02BFEF29E688E1B150204037
S1130D408040E1F700C000000E94420280E090E091
S1130D50CC59DF4F0FB6F894DEBF0FBECDBFDF9185
S1130D60CF911F910F91FF90EF9008951092800002
S1130D7010927F000E9442020E9413060E943006D5
S1130D802FEF89E698E1215080409040E1F700C0C0
S1130D90000080E090E00895CF93DF93EA010E9481
S1130DA04902CE010E94DD0280E090E0DF91CF9104
S1130DB008950E94EC027EC00E94050381E890E041
S1130DC00E94B50360911A0170911B0180910C017E
S1130DD090910D010E940A040E94F60280911C0168
S1130DE090911D01009731F420911801309119015F
S1130DF0232BC1F060911801709119010E940C0518
S1130E0080910401909105010196909305018093CE
S1130E1004012FEF84E39CE0215080409040E1F7EF
S1130E2000C000008091060190910701069709F027
S1130E3041C080910401909105010E9445062FEF65
S1130E4089E698E1215080409040E1F700C000001D
S1130E500E94420249ED50E061E070E081E090E0E0
S1130E600E94CC0645EE50E061E070E082E090E044
S1130E700E94CC060E94F6028091180190911901FB
S1130E8081309105F1F0029729F70E94420248EF60
S1130E9050E063E070E082E090E00E94CC062FEF27
S1130EA089E698E1215080409040E1F700C00000BD
S1130EB00E94B60680917F00909180000097F1F324
S1130EC07BCF0E94420243EF50E063E070E082E097
S1130ED090E00E94CC062FEF89E698E121508040F3
S1130EE09040E1F700C0000080E090E008950E9487
S1130EF08B070C9473080E946C0858F00E946508D4
S1130F0040F029F45F3F29F00C945C0851110C94D3
S1130F10A7080C9462080E94840868F39923B1F32B
S1130F20552391F3951B550BBB27AA27621773070B
S1130F30840738F09F5F5F4F220F331F441FAA1F9F
S1130F40A9F335D00E2E3AF0E0E832D0915050405B
S1130F50E695001CCAF72BD0FE2F29D0660F771F09
S1130F60881FBB1F261737074807AB07B0E809F0EF
S1130F70BB0B802DBF01FF2793585F4F3AF09E3F74
S1130F80510578F00C945C080C94A7085F3FE4F3D7
S1130F90983ED4F3869577956795B795F7959F5FB7
S1130FA0C9F7880F911D9695879597F90895E1E003
S1130FB0660F771F881FBB1F621773078407BA0762
S1130FC020F0621B730B840BBA0BEE1F88F7E095BD
S1130FD008950E94F0076894B1110C94A70808952D
S1130FE00E948C0888F09F5798F0B92F9927B75121
S1130FF0B0F0E1F0660F771F881F991F1AF0BA95B9
S1131000C9F714C0B13091F00E94A608B1E0089568
S11310100C94A608672F782F8827B85F39F0B93F5A
S1131020CCF3869577956795B395D9F73EF490956B
S11310308095709561957F4F8F4F9F4F0895E894E9
S113104009C097FB3EF490958095709561957F4F0C
S11310508F4F9F4F9923A9F0F92F96E9BB279395BA
S1131060F695879577956795B795F111F8CFFAF4CA
S1131070BB0F11F460FF1BC06F5F7F4F8F4F9F4FFB
S113108016C0882311F096E911C0772321F09EE859
S1131090872F762F05C0662371F096E8862F70E0BF
S11310A060E02AF09A95660F771F881FDAF7880F99
S11310B09695879597F9089597F99F6780E870E06A
S11310C060E008959FEF80EC089500240A941616BA
S11310D0170618060906089500240A941216130622
S11310E0140605060895092E0394000C11F48823B0
S11310F052F0BB0F40F4BF2B11F460FF04C06F5FCC
S11311007F4F8F4F9F4F089557FD9058440F551FA1
S113111059F05F3F71F04795880F97FB991F61F075
S11311209F3F79F087950895121613061406551FEC
S1131130F2CF4695F1DF08C0161617061806991F58
S1131140F1CF86957105610508940895E894BB274D
S113115066277727CB0197F908950E94C0080C945D
S113116073080E94650838F00E946C0820F09523EB
S113117011F00C945C080C94620811240C94A708D8
S11311800E94840870F3959FC1F3950F50E0551F9A
S1131190629FF001729FBB27F00DB11D639FAA27C8
S11311A0F00DB11DAA1F649F6627B00DA11D661F17
S11311B0829F2227B00DA11D621F739FB00DA11D38
S11311C0621F839FA00D611D221F749F3327A00DF2
S11311D0611D231F849F600D211D822F762F6A2F8E
S11311E011249F5750409AF0F1F088234AF0EE0FF3
S11311F0FF1FBB1F661F771F881F91505040A9F720
S11312009E3F510580F00C945C080C94A7085F3F46
S1131210E4F3983ED4F3869577956795B795F7955B
S1131220E7959F5FC1F7FE2B880F911D96958795D3
S113123097F90895FA01EE0FFF1F30962105310545
S1131240A1F16115710561F48038BFE39B0749F191
S113125068949038810561F08038BFEF9B0741F0B6
S113126099234AF5FF3FE1053105210519F1E89479
S11312700894E795D901AA2329F4AB2FBE2FF85F70
S1131280D0F310C0FF5F70F4A695E0F7F73950F083
S113129019F0FF3A38F49F779F930DD00F9007FC15
S11312A09058089546F00C94620860E070E080E87D
S11312B09FE308954FE79F775F934F933F932F9357
S11312C00E94150A2F913F914F915F910E94AD08A2
S11312D00C94720929F416F00C945C080C94A6087A
S11312E00C9462080E948C08A8F39638A0F707F8BB
S11312F00F92E8942BE33AEA48EB5FE70E94C308B5
S11313000F920F920F924DB75EB70F920E945D0A33
S1131310E4E5F0E00E94A4094F915F91EF91FF9101
S1131320E595EE1FFF1F49F0FE57E0684427EE0FD6
S1131330441FFA95E1F74195550B0E94D7090F9088
S113134007FE0C94CB090895DF93CF931F930F935B
S1131350FF92EF92DF927B018C01689406C0DA2E33
S1131360EF010E94C008FE01E894A59125913591F2
S113137045915591A6F3EF010E94A90AFE01970138
S1131380A801DA9469F7DF90EF90FF900F911F9115
S1131390CF91DF9108959B01AC0160E070E080E89B
S11313A09FE30C9477070C945C080C94FE0A0E944B
S11313B08C08D8F39923C9F3940F511DA3F39150CA
S11313C0504094F059F0882332F0660F771F881F3D
S11313D091505040C1F79E3F51052CF7880F911D45
S11313E09695879597F908955F3FACF0983E9CF0E9
S11313F0BB27869577956795B79508F4B160939563
S1131400C1F7BB0F58F711F460FFE8CF6F5F7F4F50
S11314108F4F9F4FE3CF0C94A70816F00C94FE0A4D
S11314200C94620868940C945C080E948C08A8F3DD
S11314309923C1F3AEF3DF93CF931F930F93FF92DE
S1131440C92FDD2788232AF02197660F771F881F6D
S1131450DAF720E030E040E85FEB9FE3883920F0E2
S1131460803E38F021968F770E94920AECE7F0E0F4
S113147004C00E94920AE9EAF0E00E94A4098B01E8
S1131480BE01EC01FB2E6F5771097595771F880B10
S1131490990B0E94210828E132E741E35FE30E94AF
S11314A0C008AF2D9801AE01FF900F911F91CF910D
S11314B0DF910E94A90A0C947308FA01DC01AA0FB7
S11314C0BB1F9B01AC01BF5728F4222733274427B5
S11314D0507820C0B75190F4AB2F0024469537952F
S11314E02795011CA395D2F3002071F0220F331F1E
S11314F0441FB395DAF30ED00C94910A6130710550
S1131500A0E88A07B94630F49B01AC016627772727
S113151088279078309621F0208331834283538347
S113152008955058BB27AA270E94A90A0C9473084F
S11315300E94650838F00E946C0820F039F49F3F3F
S113154019F426F40C9462080EF4E095E7FB0C946D
S11315505C08E92F0E94840858F3BA1762077307DE
S11315608407950720F079F4A6F50C94A6080EF4E8
S1131570E0950B2EBA2FA02D0B01B90190010C019F
S1131580CA01A0011124FF27591B99F0593F50F4B7
S1131590503E68F11A16F040A22F232F342F44270F
S11315A0585FF3CF469537952795A795F040539507
S11315B0C9F77EF41F16BA0B620B730B840BBAF0D7
S11315C09150A1F0FF0FBB1F661F771F881FC2F742
S11315D00EC0BA0F621F731F841F48F48795779556
S11315E06795B795F7959E3F08F0B0CF9395880F10
S11315F008F09927EE0F9795879508959F3F31F04E
S1131600915020F4879577956795B795880F911D2C
S11316109695879597F9089597FB072E16F40094ED
S113162007D077FD09D00E94200B07FC05D03EF4BB
S1131630909581959F4F0895709561957F4F08957A
S1131640AA1BBB1B51E107C0AA1FBB1FA617B707E4
S113165010F0A61BB70B881F991F5A95A9F7809500
S11316609095BC01CD0108958F929F92AF92BF9245
S1131670CF92DF92EF92FF92CF93DF93EC016881D8
S113168079818A819B81611571058105910521F418
S113169064E279ED8BE597E02DE133EF41E050E032
S11316A00E944E0E49015A019B01AC01A7EAB1E424
S11316B00E946D0E6B017C01ACEEB4EFA5019401A8
S11316C00E947B0EDC01CB018C0D9D1DAE1DBF1D48
S11316D0B7FF03C00197A109B04888839983AA83FF
S11316E0BB839F77DF91CF91FF90EF90DF90CF90F6
S11316F0BF90AF909F908F9008950E94340B0895EF
S113170080E690E00E94340B0895A0E0B0E080935E
S1131710600090936100A0936200B0936300089509
S1131720FB01DC010D900020E9F7119701900D9267
S11317300020E1F70895AEE0B0E0E1EAFBE00C94AC
S11317408E0E0D891E8986E08C831A8309838FEFA0
S11317509FE79E838D83AE01475E5F4F6F89788DCF
S1131760CE0101960E94BD0BEF81F885E00FF11FB9
S113177010822E96E4E00C94AA0EABE0B0E0E3EC09
S1131780FBE00C94800E6C017B018A01FC01178242
S11317901682838181FFCCC1CE0101963C01F60102
S11317A09381F70193FD859193FF81917F018823B4
S11317B009F4BAC1853239F493FD859193FF81917F
S11317C07F01853229F4B60190E00E94B40DE7CF81
S11317D0912C212C312CFFE1F315D8F08B3279F0C8
S11317E038F4803279F08332A1F4232D20611DC0B6
S11317F08D3261F0803369F4232D216016C0832D6E
S11318008260382EE32DE4603E2E2AC0F32DF8606A
S11318101DC037FC2DC020ED280F2A3040F08E3239
S1131820B9F436FC81C1232D2064322E19C036FE52
S113183006C08AE0989E200D1124922E11C0EAE081
S11318402E9E200D1124222EF32DF0623F2E08C06F
S11318508C3621F4832D8068382E02C0883641F4FA
S1131860F70193FD859193FF81917F018111B3CF9E
S1131870982F9F7D9554933028F40C5F1F4F9FE35E
S113188099830DC0833631F0833771F0833509F0C5
S113189059C021C0F801808189830E5F1F4F8824BD
S11318A08394912C530113C02801F2E04F0E511C74
S11318B0F801A080B18036FE03C0692D70E002C03B
S11318C06FEF7FEFC5010E94A90D4C018201F32D3A
S11318D0FF773F2E16C0280122E0420E511CF8016A
S11318E0A080B18036FE03C0692D70E002C06FEFA6
S11318F07FEFC5010E949E0D4C01F32DF0683F2E31
S1131900820133FC1BC0822D90E088169906B0F446
S1131910B60180E290E00E94B40D2A94F4CFF50160
S113192037FC859137FE81915F01B60190E00E94FA
S1131930B40D21102A9421E0821A91088114910493
S113194071F7E8C0843611F0893641F5F80137FEA5
S113195007C060817181828193810C5F1F4F08C031
S113196060817181072E000C880B990B0E5F1F4F4D
S1131970F32DFF763F2E97FF09C0909580957095C3
S113198061957F4F8F4F9F4FF0683F2E2AE030E0E4
S1131990A3010E94F00D882E861845C0853731F4C6
S11319A0232D2F7EB22E2AE030E025C0932D997F7F
S11319B0B92E8F36C1F018F4883579F0B5C0803768
S11319C019F0883721F0B0C0E92FE061BE2EB4FED3
S11319D00DC0FB2DF460BF2E09C034FE0AC0292FB0
S11319E02660B22E06C028E030E005C020E130E0D9
S11319F002C020E132E0F801B7FE07C060817181C6
S1131A00828193810C5F1F4F06C06081718180E0E9
S1131A1090E00E5F1F4FA3010E94F00D882E8618E0
S1131A20FB2DFF773F2E36FE0DC0232D2E7FA22ED9
S1131A30891458F434FE0BC032FC09C0832D8E7E09
S1131A40A82E05C0B82CA32C03C0B82C01C0B92CF7
S1131A50A4FE0FC0FE01E80DF11D8081803321F446
S1131A609A2D997EA92E09C0A2FE06C0B394B39400
S1131A7004C08A2D867809F0B394A3FC11C0A0FE9B
S1131A8006C0B21488F4280C922C9B180EC0B21411
S1131A9060F4B60180E290E00E94B40DB394F7CFF5
S1131AA0B21418F42B1802C0982C212CA4FE10C0D8
S1131AB0B60180E390E00E94B40DA2FE17C0A1FC21
S1131AC003C088E790E002C088E590E0B6010CC04E
S1131AD08A2D867859F0A1FE02C08BE201C080E213
S1131AE0A7FC8DE2B60190E00E94B40D891438F48D
S1131AF0B60180E390E00E94B40D9A94F7CF8A94E3
S1131B00F301E80DF11D8081B60190E00E94B40D4F
S1131B108110F5CF222009F442CEB60180E290E094
S1131B200E94B40D2A94F6CFF6018681978102C0F3
S1131B308FEF9FEF2B96E2E10C949C0EFC01059035
S1131B40615070400110D8F7809590958E0F9F1FBB
S1131B500895FC016150704001900110D8F7809500
S1131B6090958E0F9F1F08950F931F93CF93DF932C
S1131B70FB01238121FD03C08FEF9FEF2CC022FFC7
S1131B8016C046815781248135814217530744F496
S1131B90A081B1819D012F5F3F4F318320838C93BE
S1131BA0268137812F5F3F4F3783268314C08B01F3
S1131BB0EC01FB010084F185E02D0995892BE1F608
S1131BC0D80116968D919C911797019617969C9320
S1131BD08E931697CE01DF91CF911F910F910895A7
S1131BE0FA01AA27283051F1203181F1E8946F934A
S1131BF06E7F6E5F7F4F8F4F9F4FAF4FB1E03ED0F0
S1131C00B4E03CD0670F781F891F9A1FA11D680F8D
S1131C10791F8A1F911DA11D6A0F711D811D911DC0
S1131C20A11D20D009F468943F912AE0269F112435
S1131C303019305D3193DEF6CF010895462F477099
S1131C40405D4193B3E00FD0C9F7F6CF462F4F70F4
S1131C50405D4A3318F0495D31FD4052419302D052
S1131C60A9F7EACFB4E0A6959795879577956795F8
S1131C70BA95C9F700976105710508959B01AC01F8
S1131C800A2E06945795479537952795BA95C9F71F
S1131C90620F731F841F951FA01D0895052E97FBC7
S1131CA01EF400940E94650E57FD07D00E94B70EE3
S1131CB007FC03D04EF40C94650E50954095309576
S1131CC021953F4F4F4F5F4F0895909580957095A4
S1131CD061957F4F8F4F9F4F08950E94D90EA59F06
S1131CE0900DB49F900DA49F800D911D1124089513
S1131CF0B7FF0C946D0E0E946D0E821B930B08951A
S1131D002F923F924F925F926F927F928F929F9207
S1131D10AF92BF92CF92DF92EF92FF920F931F93F5
S1131D20CF93DF93CDB7DEB7CA1BDB0B0FB6F894A6
S1131D30DEBF0FBECDBF09942A88398848885F84E6
S1131D406E847D848C849B84AA84B984C884DF8057
S1131D50EE80FD800C811B81AA81B981CE0FD11D3B
S1131D600FB6F894DEBF0FBECDBFED010895A1E21A
S1131D701A2EAA1BBB1BFD010DC0AA1FBB1FEE1F01
S1131D80FF1FA217B307E407F50720F0A21BB30B4C
S1131D90E40BF50B661F771F881F991F1A9469F7C8
S1131DA060957095809590959B01AC01BD01CF0124
S1131DB00895A29FB001B39FC001A39F700D811D20
S1131DC01124911DB29F700D811D1124911D089540
S1071DD0F894FFCFB1
S1131DD401000000000002000400060008000A00DC
S1131DE4493E0049484848483E004948483E0001A5
S1131DF40001004D6F7665733A2000000000000076
S1131E0400000000000000000000000000000000CA
S1131E1400000000000000000000000000000000BA
S1131E2400000000004948483E0049484848483EEC
S1131E340025640047616D65206C6F73742E004740
S1131E44616D6520776F6E2100506C617920616744
S1131E5461696E3F0028792F6E203A2042312F4267
S1131E64302900427965210052656C6F6164696EA2
S1071E74672E0000D1
S9030000FC
